:020000040000FA
:10000000F0242020890200008D0200007D330000D2
:1000100000000000000000000000000000000000E0
:10002000000000000000000000000000910200003D
:100030000000000000000000930200009502000094
:10004000970200009702000097020000970200004C
:10005000970200009702000097020000970200003C
:10006000970200009702000097020000970200002C
:10007000970200009702000097020000A93E0000CE
:10008000970200009702000097020000970200000C
:1000900097020000970200009702000097020000FC
:1000A00097020000970200009702000097020000EC
:1000B00097020000970200009702000097020000DC
:1000C00000F002F800F0D1F812A030C80838241867
:1000D0002D18AC4201D100F0C8F80FCCA246AB46B7
:1000E0000CA730CF2D1B083F3F197C427F1E544484
:1000F0002D090426F441641EAC4201D300F0B5F88A
:100100000126334200D0FB1A3343984754465D46DC
:10011000DFE700003C4900005C49000000000000EF
:10012000103A02D378C878C1FAD8520701D330C840
:1001300030C101D504680C60704700000000000069
:100140007047000000000000002300240025002666
:10015000103A01D378C1FBD8520700D330C100D583
:100160000B60704710B56E2902D100F03DFB10BD49
:10017000702902D100F079FC10BD662902D104F08B
:1001800011FA10BD652902D104F00CFA10BD6729DF
:1001900002D104F007FA10BD612902D104F00AFA75
:1001A00010BD03681B0A01D380231943692902D1BA
:1001B00000F0E4FA10BD642902D100F0DFFA10BDAE
:1001C000752902D100F0DAFA10BD6F2902D100F0D2
:1001D000F7FB10BD782902D100F034FC10BDE929ED
:1001E00002D100F093FB10BDE42902D100F08EFB98
:1001F00010BDF52902D100F089FB10BDEF2902D115
:1002000000F0EAFB10BDF82902D100F029FC10BD76
:100210000368DB0901D380231943632902D101F06C
:100220000CF910BD732902D101F00FF910BDE329BB
:1002300002D101F019F910BDF32902D101F01CF926
:1002400010BD002010BD1FB501F07CF90400002096
:10025000002104F091F9401C60600020002104F0AE
:1002600075F9E0601FBD10B510BD01F043F91146EE
:10027000FFF7E9FF04F072F801F0D8FC03B4FFF7D0
:10028000F2FF03BC01F01EFD06480047FEE7FEE753
:10029000FEE7FEE7FEE7FEE703480449024A044B97
:1002A00070470000C1000000F0042020F02420204E
:1002B000F00420200FB41CB50C0007AA009007D052
:1002C0004142A14202D30019401E01E00020C04378
:1002D000074B7B4469460190069800F09EFA002186
:1002E000002C01D0009A11701CBC08BC04B0184747
:1002F0006B0500007CB51D4616460C00009007D02B
:100300004142A14202D30019401E01E00020C04337
:10031000064B7B442A4669460190304600F07DFA40
:10032000002C02D0009A002111707CBD2B0500002A
:10033000002203098B422CD3030A8B4211D30023E2
:100340009C464EE003460B433CD4002243088B42BC
:1003500031D303098B421CD3030A8B4201D3944649
:100360003FE0C3098B4201D3CB01C01A524183093C
:100370008B4201D38B01C01A524143098B4201D3F6
:100380004B01C01A524103098B4201D30B01C01A21
:100390005241C3088B4201D3CB00C01A524183089B
:1003A0008B4201D38B00C01A524143088B4201D3C8
:1003B0004B00C01A5241411A00D201465241104628
:1003C00070475DE0CA0F00D04942031000D340429D
:1003D00053409C46002203098B422DD3030A8B42D3
:1003E00012D38901FC2212BA030A8B420CD3890171
:1003F00092118B4208D3890192118B4204D3890157
:100400003AD0921100E08909C3098B4201D3CB0194
:10041000C01A524183098B4201D38B01C01A524149
:1004200043098B4201D34B01C01A524103098B424D
:1004300001D30B01C01A5241C3088B4201D3CB0038
:10044000C01A524183088B4201D38B00C01A52411B
:10045000D9D243088B4201D34B00C01A5241411AF2
:1004600000D201465241104663465B1001D3404220
:10047000002B00D54942704763465B1000D34042D1
:1004800001B50549002802DC491C084000E0084687
:10049000C046C04602BD00BFFFFFFF7F70477047E8
:1004A000704700000121C9050123411842001B06C5
:1004B000D3185B0E0AD0C1100722D2068918400754
:1004C0005242D14201D5520089187047090208D51D
:1004D0000146002A03D0C10FC9070020704710460B
:1004E0007047420202D000200249704707210905E7
:1004F0000143F4E70000F87FF0B5FF252D04C6099D
:10050000C209FF2704462E400137CB093E4348402D
:100510002A402B400746002A6BD0002B69D0AA4204
:1005200067D0AB4265D0002800DA32460125ED05E0
:1005300029432C4309022002090AD21A4B0C7F24BA
:10054000E31A434C000A7C44E35C7D242404121922
:1005500014145B00A218884201D3521C00E0400032
:1005600049420C465C4324115C43DB016415E318EB
:10057000040A5C43C502200D0C4644436419250A55
:100580005D432303EC0C0D46654300030019EB1893
:100590004C42A34201D35B18401CD4052018002B09
:1005A00007D05B00C91804D3401C002901D14008C2
:1005B00040003F2189048A4209D3002A08DC110641
:1005C000090F04D0032149074018C00FC007F0BD30
:1005D00001224100120689187F2252069142F6D26A
:1005E00005214907C84201D59010F0BDFF20C00584
:1005F000F0BD002F00DA32461648AA4207D2AB42BD
:1006000005D21902090E17D0F80FC007F0BDFF255B
:1006100063002D06AB42F9D84900A942F6D8AB4297
:1006200001D1A942F2D0A94201D1002101E061002B
:100630004908D0050843F0BD1102090EFBD0FF2088
:100640000243D005F0BD0A460146104654E70000BB
:100650007A4000000000C07F1F22030C02D10F224D
:1006600000041CD0030E01D10002083A030F01D18F
:100670000001121F830F01D18000921E002801DBB0
:100680004000521ED20551180212511819229040F2
:1006900004D3491C002801D1490849000846704785
:1006A000C10FC90700D04042012292071143D3E78E
:1006B00001218907D0E770B5044685690068C10645
:1006C00001D5302600E02026C00707D070BD626843
:1006D0003046A1689047206A401C20626D1EF6D506
:1006E00070BD70B5044685690078C00707D170BD3C
:1006F0006268A16820209047206A401C20626D1E1D
:10070000F6D570BD09684A0501D540B27047C905E4
:10071000FCD500B2704709684A0501D5C0B27047E0
:10072000C905FCD580B2704770B50C460546012A54
:1007300005D02878800600D5EA69002302E001236D
:1007400005E05B1C934202D2E05C0028F9D1A86965
:10075000E618C01AA861286AC01828622846FFF760
:10076000AAFF04E06A682078A968641C9047B44234
:10077000F8D32846FFF7B5FF70BD0000F7B5002598
:1007800075291068009914A611D0FFF7BBFF002847
:1007900002DA404211A608E0009909688A0701D5EB
:1007A0000FA602E0490704D50EA6012501E0FFF7D8
:1007B000B2FF009F0024243704E000F082FE3031B5
:1007C0003955641C0028F8D12B4632462146009842
:1007D00000F059FAFEBD0000000000002D000000EE
:1007E0002B0000002000000011680268006A530519
:1007F00001D5087009E0D30501D5088005E013068E
:1008000002D5C21705C100E0086001207047000052
:1008100001694A1C02610878704700B58FB00291E7
:1008200000210591054901937944039111460490F3
:10083000684600F027F90FB000BD0000E5FFFFFF9C
:100840000CC908399A4202D2531C0B6010707047D1
:10085000F7B50446154686B02B487844002703C8F0
:100860003E460090019111E007986A467100415A96
:1008700002A800F005FE411C07D02178890603D5A7
:10088000E269391891420ED83F18761C207880060C
:1008900002D5E069B84206DDAE42E5DB079871009B
:1008A000405A0028E0D1A069C01BA0612046FFF794
:1008B00002FF154878445A3803C80090002001917F
:1008C00016E041006A460798415A02A800F0D8FD98
:1008D0000590401C0AD0002505E0626802A8A168C6
:1008E000405D90476D1C05988542F6D30498401CE6
:1008F000B0420490E5DB206AC01920622046FFF771
:10090000F0FE09B0F0BD0000A63D0000F7B5D21D15
:100910000025D20815A6D200F52905CA11D0002A53
:1009200005DA00214042914111A60A4608E00099EB
:1009300009688B0701D50FA602E0490701D50EA66D
:1009400001251146009F0024243704E000F05EF9E1
:1009500030323A55641C02460A43F7D12B463246E0
:100960002146009800F08FF9FEBD00000000000055
:100970002D0000002B0000002000000070B5044690
:100980000021243408E05507D2086D0F3035655436
:100990005D072A43DB08491C15461D43F3D1046853
:1009A000002310A2250708D520252C400C4304D095
:1009B000C46901230CA2641EC46100F064F970BD17
:1009C00010B5044621461068FFF7A5FE0023024635
:1009D0002046FFF7D3FF10BDD21DD108C9000CC9B6
:1009E000CCE700000000000030000000F8B50F4622
:1009F0000188090502D5224C7C4402E0204C7C444D
:100A00000E3405460021243508E016071209360F7A
:100A1000A65D6E541E0732431B09491C16461E4331
:100A2000F3D1224604780023240705D5702F06D081
:100A3000002901D00223113200F025F9F8BD01236D
:100A40001032F9E770B504460D4621461068FFF7ED
:100A500062FE0023024629462046FFF7C7FF70BD0D
:100A6000D21DD308DB000CCBC0E730B403682024D0
:100A70001268234303600823C36130BC0023B5E739
:100A8000103C0000F3B50446002081B020622046EF
:100A9000E1688847002872D0252802D06268A168E2
:100AA000ABE0594F00267F442046E1688847202864
:100AB000054608DB312D06D2781920380078002849
:100AC00001D00643F0E7B00701D50420864300209B
:100AD000E0610746A0612A2D0AD0284603F02EFDCA
:100AE000002827D0B8000019303D0090856119E03A
:100AF0000298BA00121902C8916102902046E1687A
:100B00008847012F054617D1E06900281FDA202009
:100B100086431CE000980A218069484300994019E7
:100B2000303888612046E1688847054603F006FDB5
:100B30000028EFD1012F0AD02E2D08D12046E168E0
:100B400088470546202006437F1C022FC3DBA0698F
:100B5000002803DA4042A06101200643F00701D0DB
:100B6000102086436C2D0BD0682D09D04C2D3CD025
:100B70006A2D38D0742D38D07A2D36D016E040E06A
:100B8000E1682F4620468847B842054609D16C2FB8
:100B900029D001208002E1680643204688470546A7
:100BA00004E06C2F1DD0FF2001300643002D28D01B
:100BB00028464138192803D80120C00206432035B1
:100BC000204626602946029A1646FFF7CBFA0028EF
:100BD00010D001280BD0F61DF008C000083002909C
:100BE00055E74020E1E78020D5E70020D3E7361D18
:100BF00002964CE762682846A1689047206A401C2C
:100C000044E7206AFEBD00008A3B00000B4670B539
:100C1000024689078008084319469D08141AA9410D
:100C200025090807054308092C194841250A01062A
:100C30000D43010A2C194141200C0D0428430D0CD1
:100C400000194D41002140194D41C0086907084372
:100C5000E908840F8D002543840024184D41241990
:100C60006D41121BAB4107E00925ED432C115219D0
:100C700063410024401C61411C460A250026551B87
:100C8000B441F1D270BDFFB504460D4681B02430A9
:100C900000902168880604D51022E0699143216004
:100CA00000E00120A84201DD471B00E00027049876
:100CB000A1697A191018081AA0612078C00602D418
:100CC0002046FFF7F8FC002608E003986268A16858
:100CD000805D9047206A401C761C20620498864202
:100CE000F3DB2078C0060AD52046FFF7E4FC06E0D7
:100CF0006268A16830209047206A401C2062384614
:100D00007F1E0028F4DC07E000986268A168405D5F
:100D10009047206A401C206228466D1E0028F3DCA4
:100D20002046FFF7DEFC2078000602D5022005B041
:100D3000F0BD0120FBE70000FFB50C461E468FB05A
:100D400003CA089009914F007D0D00D16D1E00214E
:100D500008460020C0460321099A89050840002A58
:100D600003DA8200801840080840800D01280A90AC
:100D700002DD0020C0430A90089807430DD0F048D8
:100D8000F049281848430714189800281DD07542C8
:100D9000291E1DDD0A9842421BE01898012802D046
:100DA0000020302104E00020F24305E02154401CE3
:100DB000B042FBDB30460022189B002121540F99E2
:100DC0008B600A60486013B0F0BDBD1B6D1CDFE78F
:100DD0000A9A002900DA69420BA800F0FBFB0BAB72
:100DE00007CB03AB07C30899099800F05FFC6B467B
:100DF00007C30146D4480918002D00910BDDD249E4
:100E000003980A9A49424018002303A903906846B0
:100E100000F0BCFE08E003990A9A0023081803A911
:100E20000390684600F05CFE6B4607C30004000CAC
:100E300003D00020C043410800E01046189A002A61
:100E400003D00022009215461EE0751E05D4FFF760
:100E5000DDFE303262556D1EF9D50122084307963A
:100E600002D000227F1C04E02078302801D100222B
:100E70007F1E002A069787D01EE0112D07DAFFF7A4
:100E8000C5FE303262556D1C02460A43F5D1084357
:100E900003D00098002819D00EE00021681E05E05C
:100EA000235C625C63542254401E491C8142F7DB80
:100EB000A81B401E07950690079A18990020A05479
:100EC0000F98079B069A81600CC07CE711260020D2
:100ED000189059E7D21DF0B50D460446D10893B0DD
:100EE000C90003C90C900D9103F012FB02460D9846
:100EF000C00F01D02D2007E02068810701D52B20ED
:100F000002E04007C00F4001032A0F9001D0072ADA
:100F100005DB03462946204600F018FB0EE1207849
:100F2000800601D5E76900E006272846652D04D034
:100F3000662814D0672D69D12DE00020112F009074
:100F400001DB112300E07B1C0CAA03A910A8FFF70A
:100F5000F3FE1199002610987D1C0E9142E00120AD
:100F60003B460CAAC0070B900120009003A910A8D3
:100F7000FFF7E2FE119D12981099002600280E95A9
:100F800001D1781C0D18781B02D446427D1C761EB8
:100F9000E81B00903AE0012F00DA01270020112F12
:100FA000009001DD112300E03B460CAA03A910A824
:100FB000FFF7C2FE11993D46109800260E91217848
:100FC00009070BD40E99A94200DA0D4603A9012D99
:100FD00004DD4A19203AD27F302A06D0B84201DA1D
:100FE000011D04DA012100910FE06D1EEFE70028DA
:100FF00002DC86192D1A03E0411CA94200DD0D46D2
:10100000801B401C00900120C0070B902078000737
:1010100005D40098A84202DB0020C0430090694636
:101020000020C8720B98012102AF0337C90788421C
:1010300025D0022010902B2011900B9800280BDA5D
:1010400040420B902D20119006E00B9800F039FAE9
:1010500030317F1E0B9039701099481E0029109076
:10106000F3DC0B980028F0D111987F1E387020888F
:10107000000501D5452000E065207F1E387001A8DD
:10108000C01BC01D0B900F98002800D001204119F3
:101090000098C01709180B980818A169081A401E73
:1010A000A0612078C00602D42046FFF704FB0F9809
:1010B000002805D06268A1689047206A401C206221
:1010C0002078C00625D52046FFF7F5FA21E0002E4E
:1010D00007DB0E98B04204DD03A86268805DA1685A
:1010E00002E06268A16830209047206A761C401CAC
:1010F00020620098401E002800900AD100F022FAD9
:10110000C06862680168405CA1689047206A401C22
:10111000206228466D1E0028D9DC07E06268387816
:10112000A1687F1C9047206A401C20620B99481ED2
:1011300000290B90F2DC2046FFF7D3FA032042E6A9
:1011400001FCFFFF104D0000E1DFFFFFD21DF0B5F5
:1011500004460D46D0088DB0C00046680768314689
:10116000384603F0D5F90246F00F01D02D2307E0F1
:101170002068810701D52B2302E04007C00F4301FF
:101180006846002B037001D0012000E00020032AF4
:101190000A9001D0072A04DB2946204600F0D6F940
:1011A0002DE12078800601D40D2500E0E56970006E
:1011B000400D0D2D01904BDA300D00210B900846AB
:1011C0000020C046032189050840002E05DA820070
:1011D0008018C20F1018401008408015012801DD4A
:1011E0000020C043A9000023182906D39C460A46C4
:1011F0000123183A1B07D34003E001221205CA401D
:1012000094460C31202902D33A46203900E0324678
:101210008A40002802DD002A06D119E0002817D1F3
:101220000121C9078A4213D3194663467F185E41DC
:10123000002806D10120C007824202D10846874318
:101240009E430B98310D814202D00198401C0190C1
:101250002088000502D57149794402E06F4979443C
:1012600019396B460A9830221A540A980A7C401C95
:101270001A54401C0A900198002801DC302000E03C
:1012800031201872019A0120002A02D0644BD21832
:1012900004E072003A4302D0614A521C0192002DD0
:1012A00002DC2278120703D56A462E2050720220F3
:1012B0000022864694460CE032033601120F6D1E62
:1012C0008B5C02AA13546246521C401C9446052AA9
:1012D00001DA002DF0DC002202AE08E03B0F3F01F6
:1012E000CB5C521C6D1E3354401C082A01DA002DC1
:1012F000F4DC23689A0601D511E0401E704504DD38
:101300003218203AD27F302AF7D0002807DD321871
:10131000203AD27F2E2A02D11A0700D4401E002D77
:1013200003DD3E223254401C6D1E497C315401992C
:10133000401C002906DA2D21471C315401984042F7
:10134000019003E02B21471C315401987D21C900F5
:10135000884206DBFEF7F6FF3030F0557F1C019126
:1013600001E0642808DB01986421FEF7EBFF3030D0
:10137000F0557F1C019101E00A2806DB01980A2143
:10138000FEF7E0FF3030F0557F1C01980A21FEF790
:10139000D9FF3031F1550A98A1697F1C7A191018CC
:1013A000081AA0612078C00602D42046FFF783F90E
:1013B000216A6E460A980818206204E06268307854
:1013C000A168761C90470A98401E0A90401CF5D1EF
:1013D0002078C00602D52046FFF76DF902AE09E07D
:1013E0003078761C3E280DD06268A1689047206A4C
:1013F000401C20627F1EF3D22046FFF772F90DB029
:101400000320F0BD206A4019206203E06268A168F1
:10141000302090476D1EEDD3F8E70000FC3300004C
:1014200001FCFFFF10B54369002B02D0C046C04647
:1014300001E0FFF779F9012010BD1278014624314F
:101440000A7000224A700122ECE711680022D243A0
:10145000E8E710B54369002B02D0C046C04601E062
:10146000FFF7F6F9012010BD12880146243182846D
:101470000022C2840122ECE711680022D243E8E78F
:10148000F8B516460C46054600F054F80368FF20F0
:101490000230C05C012807D0FF2C0FD8185D00284F
:1014A0000CD001202C70F8BDFF33324621460833A2
:1014B0001868C71828460023B847F8BD0020C04365
:1014C000F8BD01468008081A02091018020A10180F
:1014D000020C1018C008820012185200891A01E08C
:1014E000401C0A390A29FBD27047000000487047A7
:1014F000600020207546FFF7F9FFAE4605006946FB
:101500005346C008C000854618B020B5FEF7C4FE9B
:1015100060BCB64600260027C0C5C0C5C0C5C0C552
:10152000C0C5C0C5C0C5C0C5403D490849008D46BD
:101530007047000010B500F005F8001D10BD00BF99
:10154000393000000048704780002020F8B51F4661
:10155000044601230068DB02032601461840072ADF
:1015600005DB002801D017A506E017A504E0002838
:1015700001D016A500E016A5102081432160A069C6
:10158000C01E002FA06101D0401EA0612046FFF7C1
:1015900092F8002F09D038466268A1689047206A07
:1015A000401C2062C01C206206E0206AFAE76268E4
:1015B0002878A1686D1C9047761EF8D22046FFF768
:1015C00090F8F8BD4E414E006E616E00494E4600E7
:1015D000696E6600F7B516468AB0334878446C46A3
:1015E00003467C33C06F5A689B680DC42E4878440C
:1015F000763003AC0DC80DC43720C0010818372160
:101600001B30FEF79FFE05460C46803D1B3C02D575
:101610006442012000E000200027099010E0E0076C
:101620000CD00C2020497843794432464C3941187B
:101630006846012300F054FA6B4607C364107F1C10
:10164000002CECD1184F7F442E3F16E0E80712D053
:101650002001C0190EC80691089307920068F04255
:1016600001D1981908903246012306A903A800F079
:1016700037FA03AB07C36D10641C002DE6D109983F
:10168000002806D032466946012303A800F07EFAFE
:1016900005E001233246694603A800F021FA0A9BBF
:1016A00007C30DB0F0BD00008C30000003464000C1
:1016B0000A4610B5400D0BD00121C9070F24A40222
:1016C00000191C0364082143540D2143D20207E092
:1016D00000210120F2E7D40F490021435200401EAF
:1016E0000029F8DADB0FDB07184310BDFFB50D4604
:1016F000144685B04868516802F0F2FE00910190EE
:10170000A868A16802F0ECFE02910390A8686168E5
:1017100002F0E6FE029A12188242029201D20120E1
:1017200000E00020019A0B18D2180028019202D084
:101730008A4202D903E08A4201D2012000E000205F
:101740000099081800906868A16802F0C9FE029A22
:1017500012188242029201D2012000E00020019A78
:101760000B18D2180028019202D08A4202D903E055
:101770008A4201D2012000E0002000990818009060
:101780002868216840004900400849084018FA4983
:10179000471814E001994000C90F084300900198D0
:1017A00002994000C90F0843019002980399400034
:1017B000C90F08430290039840007F1E03900098D1
:1017C0000028E7DA0898002801D0EC4E00E0002657
:1017D000B74201DA012000E00020002804902AD05E
:1017E000F71BF806C00E15D0029B2021091A039A98
:1017F0008B401A430392029A019BC2408B401A43CA
:101800000292019A009BC2408B4000991A430192B8
:10181000C14000917B110DD06F460320C11A03D542
:1018200000218200B95003E08A008100BA587A5042
:10183000401EF3D5374603980299002800D00120B6
:10184000014308980291002808460CD0002800D0D7
:1018500001200199019A490508430121D20AC902D0
:10186000D202019200E001210E9B0122D207012B3E
:1018700002D0002B03D013E0002807D120E09042D3
:1018800004D890420CD1019B0B4209D0019B5918FE
:10189000019105D10099491C009101D17F1C009252
:1018A00000280DD0102108460020C04604980028CA
:1018B00006D00F98002803D0082108460020C04613
:1018C00028682168019B009A4840C10F0598C90704
:1018D00039430EC009B0F0BDFFB587B0099A08982A
:1018E0000899536892684068896896460022039375
:1018F00017469446089A12685300099A5B081268C2
:10190000520052089A1A9E4BD4180A9A002A01D003
:10191000352200E04022069200220123154604925F
:10192000DB07059324E0002D05D175460346039E91
:101930004D1BB34109D375466646039B491B049D65
:101940009841059B7519AC465F4163463B4308D0FF
:10195000059B049EDD0776082E435B0804960593DD
:1019600001E0521E641EC50FED0749184041521C8C
:10197000069B9A42D7DB002D04D17546039A6B1A59
:10198000824101D203200CE0039A0B466B40424097
:10199000134303D0014303D0012002E0022000E002
:1019A0000020614601910021009702910A990029C7
:1019B00005D0614640020143704B019102E080076F
:1019C000002302909C4201DA012000E00020070081
:1019D0003AD01A1BD006C00E15D0029D2021019CC2
:1019E000091AC5408C402543029C8C4000D001243C
:1019F0002543019C0295009DC4408D4000992C43D5
:101A00000194C140009154111DD06D460221002265
:101A100002290CD10320001B07E0002804DB86000C
:101A2000AE59002E00D00122401C0328F5DB081B14
:101A300002D588002A5004E08000285810438A000C
:101A4000A850491EE3D51C460A98002802980CD0DD
:101A5000002800D001200199019A4905084301217D
:101A6000D20AC902D202019200E00121109B012298
:101A7000D207012B02D0002B03D013E0002807D19E
:101A80001FE0904204D890420CD1019B0B4209D038
:101A9000019B5918019105D10099491C009101D170
:101AA000641C009200280CD0102108460020C0467B
:101AB000002F06D01198002803D0082108460020E6
:101AC000C04608980999019A009B00680968484037
:101AD000C10F0798C907214382600AC00BB0F0BD4F
:101AE00000B585B0019300920A460146002302A882
:101AF000FFF7FCFD02A807C805B000BDFFB50A4608
:101B00001F4685B00799019301230091014602A861
:101B1000FFF7ECFD02990398049ECA0F4900D20713
:101B200000920F22490892028C1A0021002800DB43
:101B30000C46450013486D08844214D3079A002AC6
:101B400004DA441E0026104DF64302E004460D461A
:101B50000E46102108460020C046002F03D0042165
:101B600008460020C0462005E90A084300990843BA
:101B70006905F20A1143ADE602C0FFFF013C000017
:101B8000FF3F0000FF070000FFFFFF7F00B585B0AB
:101B9000019300920A460146002302A8FFF79CFE2B
:101BA00002A807C8A8E7FFB50A461F4685B00799EF
:101BB000019301230091014602A8FFF78DFE0299CF
:101BC0000398049ECA0F4900D20700920F224908C9
:101BD00092028C1A0021002800DB0C4645001148B7
:101BE0006D08844214D3079A002A04DA441E0026A2
:101BF0000D4DF64302E004460D460E461021084600
:101C00000020C046002F03D0042108460020C04613
:101C10002005E90A0843009908436905F20A1143BF
:101C200058E60000FF070000FFFFFF7F10B50446E5
:101C3000C046C0462046FEF721FB10BD024670B5E7
:101C40000A4392072AD11E4DEE0104C808C9541B4D
:101C50009443344017D0D0B2D9B2401A2106014380
:101C600010D190B299B2401A210401430AD1100256
:101C70001902000A090A401A2102014302D1100E7A
:101C8000190E401A70BD9A42DFD010BA19BA8842B4
:101C900001D9012070BD0020C04370BD02780B78CF
:101CA000401C491C002A09D09A4207D102780B78BF
:101CB000401C491C002A01D09A42EFD0D01A70BDB6
:101CC0000101010101491820ABBEFEE72600020018
:101CD000704781B00090009900200870009948700A
:101CE0000099202288540099212288540099C861C3
:101CF000886148610861C8608860486001B07047C9
:101D000080B582B000200190FFE701980F280CDC1D
:101D1000FFE701982421414305484018FFF7D9FF08
:101D2000FFE70198401C0190EFE702B080BDC0467C
:101D30009802202080B5034900200870FFF7E0FFDB
:101D400080BDC046D80420207047000082B00190BA
:101D50000091009B0199034A88581843885002B0AB
:101D60007047C0464810000010B585B0009202468A
:101D700000980B9C0A9C099C089C079C049203AA4F
:101D80001170029001930298019908430799084342
:101D900008990843099908430A9908430B9908438D
:101DA00004991278920089182322D201885005B034
:101DB00010BD10B585B00092024600980B9C0A9C9D
:101DC000099C089C079C049203AA1170029001933D
:101DD000029801990843079908430899084309990B
:101DE00008430A9908430B99084304991278920012
:101DF00089182322D201885005B010BD80B584B067
:101E00000390029101920398834940180299019A24
:101E100011437722120600F035F904B080BDC046A8
:101E200081B0009000991120020288580123984344
:101E3000885001B0704781B00090009911200202D3
:101E4000885801231843885001B0704781B0009032
:101E5000009911200202885801231843885001B0CC
:101E60007047000081B0009000994C4A88580123C7
:101E70001B021843885001B07047C04681B00090E3
:101E800000990120C202F048885001B07047C04656
:101E900084B0009101460098039102A9087003984C
:101EA0000978890040182521C9014018019001983E
:101EB0000249405880B204B07047C04600505500F7
:101EC00082B0019000910198024940580099084061
:101ED00002B070473010000010B584B0079C069C1B
:101EE000039002910192009303984B494018029984
:101EF000019A1143009A1143064A00F0D7F803985B
:101F0000264940180699079A1143034A00F0CEF873
:101F100004B010BD0100130007001F1F81B0009026
:101F20000099EC4AEC48885001B0704780B582B007
:101F30000190009101980D49401800990978A92253
:101F4000120689180A4A00F0C5F801981121090201
:101F50004018009949680722120600F0BBF8009863
:101F600040780199D24A885002B080BD080800002C
:101F7000030000FF80B584B00191014601980391F0
:101F800002A908700398054A80180978C9021F221F
:101F9000D20200F08BF804B080BDC04608110000EA
:101FA00082B001906846018000880199014A8850FA
:101FB00002B070471411000082B0019068460180A1
:101FC00000880199064A885002B0704782B001909B
:101FD0006846018000880199014A885002B0704724
:101FE0001811000082B001906846017000780F213E
:101FF0000840019901229202885002B07047000007
:1020000081B000900099044A885801231B021843AC
:10201000885001B07047C0460411000083B00290A0
:1020200001910092029801990843009908430F49D1
:10203000086003B07047C04683B0029001910092DF
:10204000029801990843009908430849086003B0C1
:102050007047C04605480068072108407047C046E1
:10206000FA480068072108407047C0460013404006
:1020700082B001900199881E001F00BFFCD2009021
:1020800002B0704784B003900291019203980068F7
:102090000090009801998843009000980299019A55
:1020A000114008430399086004B0704784B003905E
:1020B000029101920398006800900098019988436A
:1020C000009000980299019A114008430399086012
:1020D00004B0704784B003900291019203980068A5
:1020E0000090009801998843009000980299019A05
:1020F000114008430399086004B0704784B003900E
:102100000291019203980068009000980199884319
:10211000009000980299019A1140084303990860C1
:1021200004B0704784B00390029101920398006854
:102130000090009801998843009000980299019AB4
:10214000114008430399086004B0704784B00390BD
:1021500002910192039800680090009801998843C9
:10216000009000980299019A114008430399086071
:1021700004B0704784B00390029101920398006804
:102180000090009801998843009000980299019A64
:10219000114008430399086004B0704784B003906D
:1021A0000291019203980068009000980199884379
:1021B000009000980299019A114008430399086021
:1021C00004B0704784B003900291019203980068B4
:1021D0000090009801998843009000980299019A14
:1021E000114008430399086004B0704780B584B07B
:1021F0000092024600980392029101AA108003986F
:10220000112109024018029912881143024AFFF76E
:1022100075FF04B080BDC0460001010081B0009090
:10222000009911200202885801231843885001B0F8
:102230007047000081B0009000990120C202D84888
:10224000885001B07047C0460100002680B582B0BA
:10225000019000910198009A91689288FFF7C6FF5B
:1022600001986A494018009A116893891943927B32
:102270001143104AFFF742FF019889214901401894
:10228000009AD17B1369194353691943128B114387
:10229000094AFFF733FF019808494018009A917ED8
:1022A000928B1143064AFFF729FF02B080BDC0465A
:1022B00010110000030300010103030130110000AD
:1022C000010F000081B000900099EA4AEA48885066
:1022D00001B0704704080000030000B186B000920E
:1022E0000A460099019202460198059204AA1070CC
:1022F00003A80170059901239B02C9180291007877
:102300000F210840029912789200885006B0704759
:1023100082B00190009100980199894A885002B0DA
:102320007047C04670B587B0009314460D460099BB
:1023300002460E980D980C980B9B069205AA1570F4
:102340000494039102A90B8001AB18800498039CAC
:1023500020430E9C240120430D9C20431B881B011D
:10236000184309880843069912781201891809222E
:102370005202885007B070BD82B001900091009B5E
:1023800001997B4A88581843885002B07047C0466C
:10239000F0B589B0049101460498089107A9059108
:1023A0000870069208980978069F7A68BB68BC890D
:1023B000FD893E697F690397029601950094FFF7B6
:1023C000B1FF059908980978069B1A785B7800F0A8
:1023D00003F809B0F0BD000010B586B001930346C4
:1023E0000198059304AB197003A90A7002AA107032
:1023F00005981B789B00C018044BC0180978127808
:102400001143BF22FFF78EFE06B010BD1011000071
:1024100080B582B0FFF71EFE01900120002104224A
:10242000FFF7FCFD00F06CF8002805D0FFE73C4802
:102430000068C06B009003E02F4800680090FFE741
:10244000019802490860009802B080BD0013404026
:102450001948006819490860194800684860194817
:102460000068886018480068C860184800680861FB
:102470001748006848611748006888611648006876
:10248000C861164800680862154800684862154827
:102490000068886214480068C862144800680863CD
:1024A000134800684863134800688863124800684E
:1024B000C8631248086470470000C441000020202F
:1024C0000400C4410800C4410C00C4411000C441D0
:1024D0001400C4411800C4411C00C4412000C44180
:1024E0002400C4412800C4412C00C4413000C44130
:1024F0003400C4413800C4413C00C441FECAFECA95
:1025000007480068006C074940184142484170473D
:1025100003480068006C0349401841424841704735
:10252000440020200235013582B001900091009BCB
:102530000199034A88581843885002B07047C04632
:102540004810000082B001900091009801999522F6
:102550005201885002B0704782B001900091009BF8
:102560000199034A88581843885002B07047C04602
:102570002810000082B00190009100980199024A51
:10258000885002B07047C046D012000081B0009061
:1025900000990120C2025448885001B07047C046DB
:1025A0000100002610B584B0069C039002910192B0
:1025B000009302990198014300980143069A012073
:1025C00003071A401143084A1143039A9300244A0F
:1025D0009950069BC0060340039881008858184311
:1025E000885004B010BDC0468100040010B584B00E
:1025F000069C03900291019200930298019908436E
:1026000000990843069908438121084303998900EA
:10261000134A885004B010BD81B00090009881002A
:102620000F4A0020885001B07047C04682B0019028
:10263000009100980349084301998900084A88508D
:1026400002B070478000040082B0019000910098B1
:102650008021084301998900014A885002B07047DF
:102660000480424081B000900099364A3648885034
:1026700001B0704704080000030000B182B001906F
:102680000091009B01999D20420188581843885071
:1026900002B0704781B000900099254A8858012304
:1026A0001843885001B0704782B0019000910098A3
:1026B0000199024A885002B07047C0465810000085
:1026C00081B000900099024A1020885001B07047F4
:1026D0008810000081B0009000990120C2020248D9
:1026E000885001B07047C0460100002680B582B016
:1026F000019000910198112109024018009A118956
:102700005388194392791143084AFFF71FFD019836
:1027100007494018009A9188D379194312781143D8
:102720005D229200FFF712FD02B080BD7F330000F2
:102730000411000081B000900099024A02488850BC
:1027400001B0704704080000030000B180B582B0FA
:10275000019000910198044940180099034AFFF73D
:10276000A5FC02B080BDC04608110000FF030000B8
:1027700082B001900091009800780199044A885035
:1027800000984078019901221203885002B07047E6
:102790000410000080B584B000920A4601460098FB
:1027A000039102A90A7001AA10700398044BC01883
:1027B0000978127811433F22FFF778FC04B080BDFE
:1027C0000C11000080B586B0059000F093F8FFF77B
:1027D0009FFE002803D1FFE7FFF73AFEFFE7FFE780
:1027E00000F0A8F8012189030840884201D0FFE7E2
:1027F000F6E70598417E2B48029001220392FFF7ED
:10280000E1FC05982021415C274801900322FFF755
:10281000D9FCFFF725FC014603980491002104220E
:10282000FFF70AFC01980599496A09681F4A116077
:102830000599496A49681E4A116004991D4A116048
:102840000599C9694906490C7F221202FFF7BAFCB3
:102850000298059A11680907090B53681B039BB27C
:10286000C91893681B071B0DC918D368194313694E
:10287000194353691943127E11430F4AFFF7A2FC13
:10288000039A5E490868120210430860FFE700F0EF
:1028900051F8012149020840884201D0FFE7F6E7DC
:1028A00006B080BD20010B4024010B4028010B40E5
:1028B0002C010B400013404072FF0F005C49086878
:1028C00001221207904308607047C0464B490868D0
:1028D00001229043086070474849086801229043EC
:1028E0000860704745490868012212029043086059
:1028F0007047C046414908680122120290430860AF
:102900007047C0464A490868012212071043086010
:102910007047C046744908680122120310430860DA
:102920007047C0460249086810221043086070478B
:102930003C010B40014800687047C04604020B4050
:1029400081B001466846017000780249086001B014
:102950007047C04608030B4080B582B0014601A80D
:10296000018001880F2002025F48FFF79FFB02B041
:1029700080BDC04680B582B0014601A801700078D4
:1029800001030F2002033848FFF790FB02B080BD1F
:1029900080B584B003AB1880029101A80270FFF7E4
:1029A000B7FD002803D1FFE7FFF752FDFFE7FFF770
:1029B00093FF03A8008800F023F8029800F02EF897
:1029C0000E49086801221043086001A80078C0077A
:1029D00000280DD0FFE7FFF795FFFFE7FFF7AAFFFD
:1029E000012109020840884201D0FFE7F6E702E032
:1029F000FFF764FFFFE704B080BDC04608010B404D
:102A000080B582B0014601A801800188032002033D
:102A10000748FFF7D7FB02B080BDC04680B582B043
:102A2000019001990248FF22FFF7CCFB02B080BD64
:102A300010010B4081B001466846017000780249E0
:102A4000086001B07047C0460C010B4080B582B0F1
:102A5000014601A801800188012042020248FFF7D7
:102A600025FB02B080BDC04638010B4080B582B066
:102A7000014601A80170017802480322FFF716FB06
:102A800002B080BD00010B4080B582B0014601A8B4
:102A90000170017814483022FFF708FB02B080BDB6
:102AA00080B582B0014601A801700078FFF7C2FF2F
:102AB000FFE7FFF73FFF012149050840884201D0A9
:102AC000FFE7F6E70849086801221204104308608E
:102AD000FFE7FFF72FFF10210840102801D0FFE784
:102AE000F7E702B080BDC04604010B4082B0019000
:102AF000009100980199024A885002B07047C04680
:102B00004810000081B0009000990120C2023048B6
:102B1000885001B07047C04681B0009000980349CA
:102B2000405804210840800801B070473010000070
:102B300081B000900099EB4A0148885001B070477D
:102B4000010000B180B584B0019101460198039164
:102B500002A9087003981122120280180978032232
:102B6000FFF7A4FA04B080BD82B0019068460170FE
:102B700000780199014A885002B070471011000096
:102B800080B584B0019101460198039102A90870B3
:102B900003981122120280180978090207221202F2
:102BA000FFF784FA04B080BD81B000900099024A1A
:102BB0000120885001B070470811000081B00090DA
:102BC00000990120C2020248885001B07047C046F7
:102BD0000100002680B58CB00B900A910A984079CC
:102BE000C00700285BD0FFE70A980079079000280B
:102BF00004D0FFE7079820280CD017E00B98882115
:102C00000691022200F092F906990B98032200F037
:102C10008DF918E00B98AD490591022200F086F974
:102C200005990B98032200F081F90CE00B9805211F
:102C3000C9010491022200F079F904990B9803224A
:102C400000F074F9FFE70B9800220292022301932F
:102C5000114600F085F9029A0B980323039311465D
:102C600000F07EF90199029B0B98009119461A46D3
:102C700000F0AEF9029B03990B98009119461A4691
:102C800000F0A6F9019B029A0B98114600F086F914
:102C9000029A039B0B98114600F080F9FFE70A980F
:102CA000006808900A98007908A908710A98807944
:102CB00088710B9800F088F80CB080BD80B584B0A6
:102CC0000390029103980299496800F015FA02985E
:102CD00000780190222856D80198810001A0405820
:102CE0008746C0467D2D0000872D00007D2D000009
:102CF000872D0000872D0000872D0000872D000004
:102D0000872D0000872D0000872D0000872D0000F3
:102D1000872D0000872D0000872D0000872D0000E3
:102D2000872D0000712D0000872D0000712D0000FF
:102D3000872D0000872D0000872D0000872D0000C3
:102D4000872D0000872D0000872D0000872D0000B3
:102D5000872D0000872D0000872D0000872D0000A3
:102D6000872D0000712D0000872D0000712D0000BF
:102D700003980121490700F0AFF905E0039800210D
:102D800000F0AAF900E0FFE7039802990969002220
:102D9000009200F03DF9009B03980299C9681A4619
:102DA00000F0DEF8009B039819461A4600F078F907
:102DB0000398D0494018029A1178127A11433F22A1
:102DC000FFF7D8F904B080BD80B58AB009900891AA
:102DD000089800790790002804D0FFE7079820287A
:102DE00012D029E0099808990968491E00F084F971
:102DF000099888210691002200F098F80699099810
:102E0000012200F093F82AE0099808990968491E00
:102E100000F072F909982D490491002200F086F81B
:102E2000049909980122059200F080F80599099803
:102E3000490700F051F912E0099808990968490812
:102E400000F05AF909980521C9010391002200F008
:102E50006DF803990998012200F068F8FFE70998D6
:102E60000023019319461A4600F07AF8019A09984E
:102E700001230293114600F073F8019B0998009317
:102E800019461A4600F0A4F8019B0299099800918E
:102E900019461A4600F09CF8019B099819461A46F3
:102EA00000F07CF8019A029B0998114600F076F830
:102EB000099890494018089A117992791143022291
:102EC0001143034AFFF756F90AB080BD0104000020
:102ED000BFFF003081B000900099D64AD648885094
:102EE00001B070470408000082B001900091009882
:102EF000019911221202885002B0704780B584B047
:102F00000390029101A802700399224A8918009146
:102F100001780098890040180090009802990722D3
:102F20009204FFF727F904B080BDC04680B584B095
:102F30000390029101A802700399074A8918009131
:102F40000178009889004018009000980299034A7F
:102F5000FFF710F904B080BD70180000DBB6C1FFA8
:102F600010B586B005900491039202A803700599EC
:102F7000084A891801910178019889004018019048
:102F800001980499039A1143034AFFF7F3F806B036
:102F900010BDC046301800007777020010B586B02B
:102FA00005900491039202A8037005993122D20181
:102FB00089180191017801988900401801900198C1
:102FC0000499039A11438F22FFF7D4F806B010BD7D
:102FD00010B587B0009104460098099906940590B1
:102FE0000492039302A801700699084A8918019176
:102FF00001780198890040180190059804990843C8
:10300000039908430199086007B010BD50180000EB
:1030100084B00390029101A802700399064A8918AE
:10302000009101780098890040180090029800995A
:10303000086004B07047C0461018000082B00190CC
:103040000091009800780199CB4A88500098407808
:103050000199012212038850009880780199024A50
:10306000885002B07047C0460C11000010B586B001
:1030700001930B4601460198059104A90B8003AB0F
:103080001A8002AA108005981A4C001909881B881A
:103090001943128811430F4AFFF708F806B010BD14
:1030A00010B586B001930B4601460198059104A91D
:1030B0000B8003AB1A8002AA108005980D4C0019F2
:1030C00009881B88194312881143024AFFF752F8F6
:1030D00006B010BD80FF000080B582B00190009165
:1030E000019804494018009903221207FFF742F89B
:1030F00002B080BD0418000082B0019000910098D9
:103100000199024A885002B07047C0460818000072
:1031100081B0009000991120020288580123984341
:10312000885001B07047000082B001900091009B70
:103130000199034A88589843885002B07047C046A6
:103140002810000081B000900099112002028858D8
:1031500001231843885001B07047000082B00190ED
:10316000009100980199024A885002B07047C04609
:103170005810000081B0009000990120C002024A5E
:10318000885001B07047C0468810000081B00090A0
:1031900000990120C2026948885001B07047C046BA
:1031A00081B000900098812149014058C0B201B01F
:1031B0007047000080B582B0019000910198FFF740
:1031C000A7FF0198112109024018009A11889378ED
:1031D000194392881143084AFEF7E0FF01982949F4
:1031E0004018009A9179D3791943127A11437E22BB
:1031F000FEF7D4FF02B080BD1867020081B00090D6
:10320000009842494058C0B2C00901B07047C0465A
:1032100081B00090009802494058C0B201B0704798
:103220002411000081B000900099494A024888505A
:1032300001B0704704080000030000B180B584B0FD
:1032400003900291019203980B49401802990B4A8E
:10325000FEF72CFF03980A49401801993F22FEF718
:1032600025FF0399074A8818895801221140FEF763
:103270001DFF04B080BDC04610110000FFFF00001C
:10328000141100000411000082B001900091009818
:1032900000780199384A88500098407801990122B5
:1032A0001203885002B0704780B582B0019000913F
:1032B000019811210902401800990322D203FEF758
:1032C000F5FE02B080BD82B00190684601700078C2
:1032D000019989225201885002B0704782B0019052
:1032E0000091009908784A78104349880843019969
:1032F00011221202885000998888C9880904401850
:103300000199024A885002B07047C0460811000077
:1033100081B00090009911200202885801231843BF
:10332000885001B07047000081B0009000990120E2
:10333000C2020248885001B07047C0460100002612
:1033400081B000900099024A0248885001B070474D
:1033500004080000010000B182B0019000910098C3
:1033600000780199044A8850009840780199012218
:103370001203885002B0704708100000FFE7FEE714
:1033800080B588B019490120069080070790FEF7A4
:10339000CDFD069B079800220592019200925904E8
:1033A000FEF79AFD059B07980493039302930193FC
:1033B000009319461A46FEF7FCFC07980321FEF716
:1033C000EFFD07980D214901FEF700FE0798FEF773
:1033D00049FD07980A21FEF7CDFD06990798FEF7EB
:1033E00001FE0798FEF732FD08B080BD00470000DF
:1033F00080B582B04A48019020210091FEF788FFF5
:1034000000990198FEF7B8FF0198034A0521FEF7DD
:10341000BFFF02B080BDC0460847000080B582B043
:10342000074908480190FEF711FF01980021022288
:10343000FEF754FF0198FEF7F1FE02B080BDC046D2
:10344000204700000080014080B582B034480190E0
:1034500010210091FEF75CFF00990198FEF78CFFA8
:103460000198034A0421FEF793FF02B080BDC046D5
:103470004047000080B582B02948019002210091A8
:10348000FEF746FF00990198FEF776FF0198034A80
:103490000121FEF77DFF02B080BDC0465847000005
:1034A00080B582B01E48019001210091FEF730FFE7
:1034B00000990198FEF760FF0198034A0021FEF78A
:1034C00067FF02B080BDC0467047000080B582B083
:1034D0001348019008210091FEF71AFF0099019806
:1034E000FEF74AFF0198034A0321FEF751FF02B09D
:1034F00080BDC0468847000080B582B00848019072
:1035000004210091FEF704FF00990198FEF734FFB3
:103510000198044A0221FEF73BFF02B080BDC0467D
:1035200000A04240A047000080B5FFF761FFFFF711
:103530008BFFFFF7CBFFFFF7DFFFFFF79BFFFFF7E7
:10354000AFFF80BD80B592B009200990FFF764F805
:103550000A20FFF761F84B2005210191FFF774F86D
:10356000784810900421FFF705F801994D20FFF7E6
:103570006BF810981021FEF7FDFF14200221029134
:10358000FFF762F802991520FFF750F80F200F900F
:103590000B210391FFF758F803990E20FFF754F819
:1035A000202003210491FFF74FF804991F20FFF713
:1035B0004BF804991E20FFF739F81D200721FFF76B
:1035C00043F80023069300930120059042040792DC
:1035D0000C201946FFF70AF8069B079A009355201E
:1035E0001946FFF703F8069B079A009356201946E1
:1035F000FEF7FCFF069B079A009332201946FEF760
:10360000F5FF069B079A009323201946FEF7EEFF6D
:10361000069B079A009326201946FEF7E7FF069BB4
:10362000079A009338201946FEF7E0FF069B079A99
:10363000009340201946FEF7D9FF069B079A009396
:1036400041201946FEF7D2FF069B079A00934220BD
:103650001946FEF7CBFF069B079A009353201946A5
:10366000FEF7C4FF069B079A009354201946FEF705
:10367000BDFF069B079A009316201946FEF7B6FF7A
:10368000069B079A009317201946FEF7AFFF069B8B
:10369000079A009318201946FEF7A8FF069B079A81
:1036A000009319201946FEF7A1FF05980699079A7D
:1036B0000091C30408932F20FEF774FF0699079A20
:1036C000089B00913320FEF76DFF0699079A089B2F
:1036D00000913720FEF766FF0699079A089B009134
:1036E0003920FEF75FFF099881030B91F3480A9098
:1036F000FEF728FF0A980B99FEF73CFFF0480D9063
:1037000011490C91FEF71EFF0C990D98FEF732FF40
:103710000D980E49FEF7B2FF0D98B12109050E91E3
:10372000FEF702FF0D980E99FEF716FF0F991098FD
:1037300089011191FEF706FF10981199FEF71AFF03
:1037400012B080BD00400A40C203807400028A00AB
:1037500080B586B01F49DC480590FFF76FFC0598DF
:103760001D49FFF737FA05980023029319461A46B8
:10377000FFF77CFC029B0598009319461A46FFF759
:1037800027FC029A05981146FFF7B8FB029A0598A4
:103790007D21C9000391FFF73BFC029B05980121A5
:1037A0000491009119461A46FFF712FC0299049AF7
:1037B0000598FFF7A3FB0399049A0598FFF728FCE7
:1037C0000598FFF7F1F905980321FFF78DFB06B087
:1037D00080BDC046B8470000BC47000080B582B03D
:1037E0000E49BD480190FEF7C3FF01980C49FEF752
:1037F0007DFF01980421FEF7A9FF0198FEF760FF05
:1038000001980821FEF750FF019810210222FEF7CF
:10381000C1FF0198FEF73EFF02B080BDC447000023
:10382000C647000080B582B00B49AA480190FEF758
:103830009FFF01980949FEF759FF01980421FEF7FF
:1038400085FF019810210222FEF7A4FF0198FEF7E0
:1038500021FF02B080BDC046D0470000D247000023
:1038600080B582B000200190FFF76AF80120400285
:103870000090FFF771F80198FFF7F8F8FFF726F8C6
:10388000FFF730F8019A032000030A21FFF780F8C0
:103890000A48FEF797FF1020FFF7F6F80920FFF718
:1038A00069F8FFF737F8FFF73DF80098FFF7CEF813
:1038B0000198FFF7F5F802B080BDC046DC47000074
:1038C00080B582B0064981480190FFF7B7FB0198A7
:1038D0000449FFF7F3F90198FFF766F902B080BDDC
:1038E000044800000848000080B582B07C48019080
:1038F0000721FFF739F901980321FFF723F9FFE7C3
:103900007748FFF709F9002801D1FFE7F8E7744885
:1039100000900421FFF7EAF800980321FFF730F93F
:1039200002B080BD80B582B00F4969480190FFF7B1
:10393000ABFC01980D49FFF73DFC01980021FFF712
:10394000B3FC019841210722FFF778FC019801217F
:103950008902FFF703FC0198FFF70CFC0198FFF7C1
:10396000F1FB02B080BDC0461C4800001E480000AC
:1039700080B582B0074959480190FFF7EDFC0198E6
:103980000549FFF7ABFC19204001FEF771FB02B0BF
:1039900080BDC046284800002A48000080B500F0DD
:1039A00031F8FFF7CFFDFFF75BFFFFF7D1FEFFF721
:1039B00087FFFFF7B7FFFFF735FFFFF70FFFFFF7B1
:1039C000DFFCFFF7D5FFFFF7AFFDFFF78DFFFFF738
:1039D00025FD0749B8220020885406498854064925
:1039E00024228854054988540549087380BDC0467F
:1039F000C0002020CC0120207C012020A401202018
:103A00008802202080B58CB02C480090FEF72AFE5A
:103A10002B480190FEF726FE2A480290FEF722FE70
:103A200029480390FFF756FA28480490FFF752FA06
:103A300027480590FFF7F6FB26480690FEF77AFE2A
:103A400025480790FEF776FE012080070890FEF7D4
:103A500065FACB480990FFF773FC21480A90FFF7FD
:103A600067F820480B90FEF72DFC0098FEF78EFDBE
:103A70000198FEF78BFD0298FEF788FD0398FFF78B
:103A80009DF80498FFF79AF80598FFF77FFB0698D2
:103A9000FEF720FE0798FEF71DFE0898FEF7EEF9E8
:103AA0000998FFF741FC0A98FFF72CF80B98FEF7EE
:103AB000C1FB1020FEF7DCFA0CB080BD00000A400C
:103AC00000200A4000400A40000086400020864056
:103AD000008010400080464000A0464000000340A7
:103AE000004044400080014080B598B0179069487C
:103AF00016906948159000200E9014901798674909
:103B0000086017986649674A0A9200F07BFA17988E
:103B1000654900F077FA0A9A1798644900F072FA3A
:103B2000634800F0AFF91798624900F06BFA1798F4
:103B3000614900F067FA00F0F9F817985F4900F062
:103B400061FA00F0D1F811901798119A5C4900F0D1
:103B500059FA17980D9000F0E5F80A210B91FCF73F
:103B6000F1FB0C9000F0DEF80B99FCF7EBFB0C9AE4
:103B70000D980B46534900F045FA1798524900F04A
:103B800041FA0E981090FFE71098092836DCFFE7FD
:103B900000F024F913901398FCF782FD7F49FCF79D
:103BA000ABFC1290179809901098401C089013983D
:103BB0000A21FCF7C7FB089A034609980091494976
:103BC00000F020FA13981699884203DAFFE7139859
:103BD0001690FFE713981599884203DDFFE71398C5
:103BE0001590FFE71399149840181490C82000F01E
:103BF0005BFBFFE71098401C1090C5E7179833490E
:103C000000F000FA1798029016980A210491FCF728
:103C100099FB024602980B462D4900F0F3F90499EE
:103C2000179803901598FCF78DFB024603980B46F6
:103C3000284900F0E7F90499179805901498FCF7C3
:103C400081FB0499FCF77EFB024605980B4622494E
:103C500000F0D8F900F098F80F90179806900F9898
:103C6000FCF720FC024606980B461C4900F0CAF9F6
:103C700017980B490B4A079200F0C4F91798184996
:103C800000F0C0F9079A1798084900F0BBF918B07E
:103C900080BDC0460F270000F1D8FFFFE8042020B8
:103CA0000A4A0000334A0000F04900000C4A0000B4
:103CB0007D4200000E490000C7480000DB490000BB
:103CC000114A00007A490000F2480000DE48000076
:103CD000564900006849000044490000AB49000013
:103CE000CF4900009A49000080B5B4B0FEF790FBC0
:103CF0003390FFE76748006800280CD0FFE7339B4C
:103D0000074A01A80090C821FCF7D4FA009861493D
:103D100009688847FFE7FFE7339834B080BDC046A5
:103D2000804800004B2080007047000080B5B4B090
:103D30001348FFF7EDFA0120019080070D2149019A
:103D4000FEF73AF9FFF7D0FF014601984B4A1160A0
:103D500049490870FFE74F48006800280DD0FFE789
:103D600046480368074A02A80090C821FCF7A2FA57
:103D70000098484909688847FFE7FFE734B080BDED
:103D800000000340AE48000080B500F027F8FCF7C3
:103D900087FC0249FCF7B0FB80BDC0460000204113
:103DA00080B5B4B0FFE73B48006800280BD0FFE7C0
:103DB000094A02A80190C821FCF77CFA019835490C
:103DC00009688847FFE7FFE70120410202030B2053
:103DD00000F0DAFA34B080BD3248000080B5BAB0E5
:103DE00025480078C007002803D1FFE7002039905C
:103DF0003FE0FFF7D5FF3890389A0A20014651433B
:103E00004B1FAF21C9000A465A43D3171B0DD218C6
:103E100012133792194A136802465A43521F5143EC
:103E2000CA17120D8918091336913799369A891ACB
:103E300048431221C943FCF785FA4B2189004018F9
:103E40003590FFE71348006800280ED0FFE7389B45
:103E5000359800900A4A03A80290C821FCF72AFA74
:103E600002980C4909688847FFE7FFE735983990C1
:103E7000FFE739983AB080BDE4042020DC0420201C
:103E80006748000081B0009000980249086001B0C6
:103E90007047C046E004202080B582B001900198B0
:103EA000FFF722FE02B080BD80B5554800F002F851
:103EB00080BDC04680B584B00390039800F050F8F0
:103EC00002900298002801D5FFE746E0FFE703983B
:103ED000FFF766F901A9087000283ED0FFE701A8A6
:103EE00000780B281AD1FFE70398FFF791F969468C
:103EF00008700298142141432A484018406800285D
:103F00000BD0FFE7029814214143264841184A6824
:103F10006846007889689047FFE71DE001A80078AF
:103F20000C2818D1FFE70298142141431D4840187E
:103F3000C068002809D0FFE70298142141431948BE
:103F40004018C16800698847FFE703980121C9024A
:103F5000FFF7EAF8FFE7FFE7B9E704B080BDC04626
:103F600083B0019000200090FFE70098002811D155
:103F7000FFE70098142141430A48405801998842BC
:103F800003D1FFE70098029008E0FFE70098401C8B
:103F90000090EAE70020C0430290FFE7029803B0D8
:103FA0007047C0464800202080B584B00290029837
:103FB000FFF7D6FF002804D5FFE703A90320087008
:103FC00019E00298EF49884211D1FFE70F200190D4
:103FD00000F0E6F80198022100F00EF9019800F0D7
:103FE000F5F803208102E748FFF79EF8FFE703A9F1
:103FF00000200870FFE703A8007804B080BDC04629
:104000000080104082B080B5C8B04B934A92469071
:1040100045914698FFF7A4FF002804D4FFE7459890
:10402000002804D1FFE70020C04347902CE04AA8B5
:104030000490459A049B0120010205A8FCF75AF957
:1040400003900398002804D5FFE70020C043479061
:104050001AE00398FF2803DDFFE7FF20019002E04C
:1040600003980190FFE7019802904698029A05A9EB
:1040700000F011F8002804D0FFE70020C04347906B
:1040800002E002984790FFE7479848B080BC02BC26
:1040900002B08E46704780B586B0049003910292BC
:1040A0000498FFF75DFF002808D4FFE70398002875
:1040B00008D1FFE70298002804D0FFE705A90320F4
:1040C000087021E000200190FFE7019802998842E2
:1040D00016D2FFE704980399019A895C00F018F85A
:1040E0000146684601700078002804D0FFE7009878
:1040F00005A9087008E0FFE70198401C0190E4E77B
:1041000005A900200870FFE705A8007806B080BD6B
:1041100080B584B0029001A801700298FFF720FFDB
:10412000002804D5FFE703A90320087012E00298D5
:1041300000F014F8002804D1FFE703A9012008705B
:1041400008E0029801A90978FFF7BDF803A900204B
:104150000870FFE703A8007804B080BD80B584B084
:1041600002900E480190FFE70298FFF747F80028F9
:104170000CD0FFE70198002804D1FFE703A9002035
:10418000087007E00198401E0190EDE703A90120A7
:104190000870FFE703A8007804B080BD40420F001C
:1041A00081B001466846017000214056002809D4BC
:1041B000FFE7684601781F2001400120884002493E
:1041C0000860FFE701B0704780E200E081B001467F
:1041D0006846017000214056002809D4FFE7684670
:1041E00001781F2001400120884002490860FFE754
:1041F00001B0704700E100E070B582B0024601A84E
:104200000270009100214056002816D4FFE70024D8
:1042100001A908570322D3431840174A8058095769
:104220008C07E50EFF24AC40A043009CA401E4B23F
:10423000AC402043194088501AE001A908780F24A7
:10424000204008380322D34318400A4A80580025EA
:1042500049578D07EE0EFF25B540A843009DAD01DF
:10426000EDB2B54028432140083919408850FFE796
:1042700002B070BD1CED00E000E400E080B582B04B
:10428000019007480068002807D0FFE7044800684D
:10429000019A0449FFF7B6FEFFE702B080BDC046B1
:1042A000E80420200C4A000080B584B00390104838
:1042B0000290FFE70398002818D0FFE703980299BF
:1042C000884203D9FFE70298009002E0039800902B
:1042D000FFE70098019001997D20C000484300F05D
:1042E00017F801990398401A0390E3E704B080BDE2
:1042F0003789410080B582B001900198002804D030
:10430000FFE70198FDF7B4FEFFE702B080BD0000B3
:1043100080B584B0039010480290FFE7039800280E
:1043200017D0FFE703980299884203D9FFE7029864
:10433000009002E003980090FFE700980190019937
:1043400050204843FFF7D6FF01990398401A039085
:10435000E4E704B080BDC0463333330380B582B098
:1043600000200190FFF71AFB06480090FFF71CFEA3
:10437000FDF7E0FCFDF7E8FC0098FFF78DFDFFE797
:10438000FEE7C0460080104010B5F6B074907391FF
:10439000729201200A90800771904C487090719839
:1043A000FDF73EFD0A9A719849494018002109918C
:1043B000FDF768FE7198FDF73EFD099A7198114668
:1043C000FDF71CFD09997198749A739B729C049176
:1043D0000391029101910094FDF7C6FC0A9971982E
:1043E0000902FDF7B3FC7198FDF70AFEFFE771982B
:1043F00001210902FDF764FD00282FD1FFE7709825
:10440000401E7090002828D1FFE7FFE73148006880
:10441000002810D0FFE7749B71982D4940580090F8
:104420002E4A3EA80890C821FBF744FF0898294966
:1044300009688847FFE7FFE77198FDF7F1FC71987D
:104440002349401801221146FDF71CFE7198FDF723
:10445000F2FC75A90020088033E0C8E771980021BC
:10446000FDF716FD3DA90880719801210791090209
:10447000FDF76CFC7198FDF7D3FC079A719814490D
:1044800040181146FDF7FEFD7198FDF7D4FCFFE7DB
:104490001048006800280FD0FFE7749B3DA80088F3
:1044A00000900D4A0BA80690C821FBF703FF069861
:1044B000084909688847FFE7FFE73D9875A9088024
:1044C000FFE775A8008876B010BDC04620A10700A0
:1044D00004110000E0042020954800004648000038
:1044E000F8B5040C8BB2264682B25E4310465843A0
:1044F0000D0C370C360400218019164679416E43A5
:10450000370C36048019264679416E438919F8BD67
:104510004900CA020243100000D004204A0D01D015
:1045200001221043044A490D914201D1022108435E
:10453000012800D105207047FF07000030380A2805
:1045400001D20120704700207047000010B50029FB
:104550000AD00878002807D005487844FDF76EFB9C
:10456000002801D0002010BD0248784410BD000092
:10457000160500000E05000010B500290AD00878C5
:10458000002807D005487844FDF758FB002801D0E3
:10459000002010BD0248784410BD00000605000050
:1045A000FE04000003B402487844844603BC60471C
:1045B00029C9FFFF03B402487844844603BC60471E
:1045C00091CBFFFF8182838485868788898B8C8D40
:1045D0008E8F919293959697999A9C9D9FA0A2A356
:1045E000A5A7A8AAACAEB0B2B3B5B7B9BCBEC0C29D
:1045F000C5C7C9CCCED1D4D7D9DCDFE2E6E9ECF02F
:10460000F3F7FAFE00000000000000003031323302
:1046100034353637383941424344454640305800F6
:104620003031323334353637383961626364656628
:104630004030780004000008000000000000000284
:1046400000010000103031323334353637383961EB
:1046500062636465667870003031323334353637E2
:10466000383941424344454658500000024000005A
:10467000000000A00000000005400000000000C88D
:10468000000000000C4000000000409C0000000002
:10469000194000000020BCBE0000000034400000B3
:1046A000BFC91B8E00000004B5400000504BCFD0A6
:1046B0006607E2CF010000006C4100003E8251AA73
:1046C000DFEEA73401000000D9420000DCB5A0E213
:1046D0003A301F97FFFFFFFFB4450000FD25A0C83B
:1046E000E9A3C14FFFFFFFFFFF3F00000000008074
:1046F00000000000FF3F00000000008000000000FC
:104700000105000000000000200000000000003053
:104710000000000000010001000000000000030094
:104720000000000100010000000000000002010183
:104730000000010000000001000100000000000076
:104740000500000000000030000000000001000132
:1047500000000300000000001A000000000000102C
:104760000000000000000000000000000000030046
:104770001B0000000000001000000000000000000E
:1047800000000300000000000E0000000000001008
:104790000000000000000000000000000000030016
:1047A0000F000000000000100000000000000000EA
:1047B000000003000000000008000000E803000003
:1047C00000010100080004002000000007100000A4
:1047D00008000400000000000710000001000000B5
:1047E00000000000000000000000000000000000C9
:1047F00010000000000100000300000000000000A5
:104800003400C4410400000022000000F301000055
:10481000010000000000000000000000080000008F
:1048200018000000003000000200018000000000BD
:1048300000005B54454D505D202D2D2D207265618B
:1048400064202D2D2D005B54454D505D2054494D65
:10485000454F55542063683D25752043544C313DE8
:10486000307825303858005B54454D505D207261DA
:10487000773D25642074656D702A31303D256400D4
:104880005B54454D505D2063616C20636F6465200F
:104890003D202575005B54454D505D2063683D25E6
:1048A0007520726573756C74203D202575005B540E
:1048B000454D505D20696E697420646F6E652C20D3
:1048C00063616C3D2575000D0A5B315D2054454DDB
:1048D000505F696E697428292E2E2E0D0A000D0A6C
:1048E0005B345D20537461746973746963733A0D4A
:1048F0000A000D0A5B335D2052656164696E6720B2
:1049000031302073616D706C65733A0D0A000D0AC9
:104910005B305D204465627567207072696E74203B
:10492000726567697374657265642C20646574616F
:10493000696C6564206C6F6720666F6C6C6F777351
:104940003A0D0A0020204176673A202025642E2562
:104950006420430D0A0020204D696E3A2020256412
:104960002E256420430D0A0020204D61783A202036
:1049700025642E256420430D0A0020202020436159
:104980006C6962726174696F6E2074656D703A2033
:1049900025642E256420430D0A0020205B25645DDC
:1049A0002025642E256420430D0A000D0A5B355D29
:1049B0002054454D505F7265616428292028666C3B
:1049C0006F6174293A20252E326620430D0A005467
:1049D00045535420444F4E450D0A005B315D205431
:1049E000454D505F696E69742829204F4B0D0A00B0
:1049F00054454D50455241545552452053454E5310
:104A00004F5220544553540D0A000D0A25730D0AC8
:104A1000000D0A5B325D2043616C696272617469EA
:104A20006F6E2041444320636F64653A20256C75A6
:104A30000D0A003D3D3D3D3D3D3D3D3D3D3D3D3D46
:104A40003D3D3D3D3D3D3D3D3D3D3D3D3D0000004D
:104A5000A04B0000000020206000000020010000AA
:104A6000004C00006000202090240000480100005D
:104A70001C00000043000000F8FFFFFF0C000000D6
:104A80000E0000000F0000002E00000010010000CA
:104A900043000000F8FFFFFF00404040404040401E
:104AA0004040414141414140404040404040404001
:104AB00040404040404040404005020202020202A5
:104AC00002020202020202020220202020202020F4
:104AD0002020200202020202020290909090909008
:104AE00010101010101010101010101010101010C6
:104AF000101010100202020202028888888888883A
:104B00000808080808080808080808080808080825
:104B1000080808080202020240000000000000002D
:104B20000000000000000000000000000000000085
:104B30000000000000000000000000000000000075
:104B40000000000000000000000000000000000065
:104B50000000000000000000000000000000000055
:104B60000000000000000000000000000000000045
:104B70000000000000000000000000000000000035
:104B80000000000000000000000000000000000025
:104B90000000000000000000000000000000000015
:104BA0000000000000000000000000000000000005
:104BB00000000000000000000000000000000000F5
:104BC00000000000000000000000000000000000E5
:104BD00000000000000000000000000000000000D5
:104BE00000000000000020200080104000000000B5
:104BF00000000000000000000000000000000000B5
:04000005000000C136
:00000001FF
